S00D00006D6F746F722E73726563E6
S11300000C942A000C943C000C943C000C943C008E
S11300100C943C000C943C000C943C000C943C006C
S11300200C943C000C943C000C943C000C943C005C
S11300300C943C000C943C000C943C000C943C004C
S11300400C943C000C943C000C943C000C943C003C
S11300500C943C0011241FBECFE5D8E0DEBFCDBF19
S113006020E0A0E6B0E001C01D92A036B207E1F79F
S11300700E943E000C9415050C940000CF93DF936E
S1130080CDB7DEB760E080E00E94C30221E040E02B
S113009065E080E00E94C303FFCFCF93DF9300D0DD
S11300A0CDB7DEB789836A8389818830A0F58A81D8
S11300B0882F90E00097C1F0019709F0EDC08BE321
S11300C090E02BE330E0F9012081622F2981422F57
S11300D050E021E030E002C0220F331F4A95E2F7DE
S11300E0262BFC012083D8C08BE390E02BE330E087
S11300F0F9012081622F2981422F50E021E030E074
S113010002C0220F331F4A95E2F720952623FC01F3
S113011020830000C1C08981883008F43DC08981F2
S11301208031D0F58A81882F90E00097D9F001972B
S113013009F0B2C088E390E028E330E0F9012081BF
S1130140622F2981222F30E0A9014770552721E031
S113015030E002C0220F331F4A95E2F7262BFC0140
S1130160208319C088E390E028E330E0F90120817E
S1130170622F2981222F30E0A9014770552721E001
S113018030E002C0220F331F4A95E2F72095262360
S1130190FC012083000080C08981803108F43DC0C7
S11301A089818831D0F58A81882F90E00097D9F031
S11301B0019709F071C085E390E025E330E0F9018F
S11301C02081622F2981222F30E0A9014770552711
S11301D021E030E002C0220F331F4A95E2F7262BBC
S11301E0FC01208319C085E390E025E330E0F901A8
S11301F02081622F2981222F30E0A90147705527E1
S113020021E030E002C0220F331F4A95E2F7209527
S11302102623FC01208300003FC089818831E0F15E
S113022089818032C8F58A81882F90E00097D9F0BF
S1130230019709F031C082E390E022E330E0F90154
S11302402081622F2981222F30E0A9014770552790
S113025021E030E002C0220F331F4A95E2F7262B3B
S1130260FC01208319C082E390E022E330E0F9012D
S11302702081622F2981222F30E0A9014770552760
S113028021E030E002C0220F331F4A95E2F72095A7
S11302902623FC012083000000000F900F90DF91C3
S11302A0CF910895CF93DF9300D0CDB7DEB7898384
S11302B06A8389818830A0F58A81882F90E000972D
S11302C0C1F0019709F0EDC08AE390E02AE330E041
S11302D0F9012081622F2981422F50E021E030E092
S11302E002C0220F331F4A95E2F7262BFC0120831C
S11302F0D8C08AE390E02AE330E0F9012081622F3C
S11303002981422F50E021E030E002C0220F331F48
S11303104A95E2F720952623FC0120830000C1C002
S11303208981883008F43DC089818031D0F58A8183
S1130330882F90E00097D9F0019709F0B2C087E3C5
S113034090E027E330E0F9012081622F2981222FF8
S113035030E0A9014770552721E030E002C0220FA8
S1130360331F4A95E2F7262BFC01208319C087E34B
S113037090E027E330E0F9012081622F2981222FC8
S113038030E0A9014770552721E030E002C0220F78
S1130390331F4A95E2F720952623FC0120830000B1
S11303A080C08981803108F43DC089818831D0F5CD
S11303B08A81882F90E00097D9F0019709F071C0E5
S11303C084E390E024E330E0F9012081622F298165
S11303D0222F30E0A9014770552721E030E002C008
S11303E0220F331F4A95E2F7262BFC01208319C004
S11303F084E390E024E330E0F9012081622F298135
S1130400222F30E0A9014770552721E030E002C0D7
S1130410220F331F4A95E2F720952623FC012083FF
S113042000003FC089818831E0F189818032C8F5BC
S11304308A81882F90E00097D9F0019709F031C0A4
S113044081E390E021E330E0F9012081622F2981EA
S1130450222F30E0A9014770552721E030E002C087
S1130460220F331F4A95E2F7262BFC01208319C083
S113047081E390E021E330E0F9012081622F2981BA
S1130480222F30E0A9014770552721E030E002C057
S1130490220F331F4A95E2F720952623FC0120837F
S11304A0000000000F900F90DF91CF910895CF933B
S11304B0DF9300D01F92CDB7DEB789836A834B8365
S11304C08B818130C1F48981882F90E09C018981DE
S11304D0882F90E0FC018081682F8A81482F50E0AA
S11304E081E090E002C0880F991F4A95E2F7862BBD
S11304F0F90180831BC08B818823C1F48981882FF3
S113050090E09C018981882F90E0FC018081682F14
S11305108A81482F50E081E090E002C0880F991F43
S11305204A95E2F780958623F901808300000F90B5
S11305300F900F90DF91CF910895CF93DF9300D068
S1130540CDB7DEB789836A838A81813039F48981A2
S1130550882F90E02FEFFC0120830FC08A8188232D
S113056031F48981882F90E0FC01108206C08981D2
S1130570882F90E02A81FC01208300000F900F90C7
S1130580DF91CF910895CF93DF9300D0CDB7DEB73D
S113059089836A838981882309F057C061E08DE1EA
S11305A00E9452018A81882339F541E067E08FE493
S11305B00E94570240E066E08FE40E94570240E048
S11305C060E08FE40E94570241E061E08FE40E9402
S11305D0570240E063E08EE40E94570241E064E089
S11305E08EE40E94570266E087E40E949D0260E464
S11305F086E40E949D0229C08A81813031F541E060
S113060067E08FE40E94570240E066E08FE40E94B6
S1130610570240E060E08FE40E94570241E061E04D
S11306208FE40E94570241E063E08EE40E94570287
S113063041E064E08EE40E9457026CE087E40E948B
S11306409D026FE786E40E949D028981813009F052
S113065057C061E08CE10E9452018A81882339F5F8
S113066041E065E08FE40E94570240E064E08FE4DB
S11306700E94570240E060E08FE40E94570241E08C
S113068061E08FE40E94570240E063E08EE40E9440
S1130690570241E064E08EE40E94570266E087E47A
S11306A00E949D0260E486E40E949D0229C08A8122
S11306B0813031F541E065E08FE40E94570240E06B
S11306C064E08FE40E94570240E060E08FE40E94FF
S11306D0570241E061E08FE40E94570241E063E089
S11306E08EE40E94570241E064E08EE40E945702C7
S11306F06CE087E40E949D026FE786E40E949D02FD
S113070040E060E08EE40E94570241E061E08EE444
S11307100E94570240E062E08EE40E94570260E0CB
S11307208DE40E949D0260E08CE40E949D02000022
S11307300F900F90DF91CF910895CF93DF9300D066
S1130740CDB7DEB789836A838A81813039F48981A0
S1130750882F90E02FEFFC0120830FC08A8188232B
S113076031F48981882F90E0FC01108206C08981D0
S1130770882F90E02A81FC01208300000F900F90C5
S1130780DF91CF910895CF93DF93CDB7DEB728974C
S11307900FB6F894DEBF0FBECDBF8D836E834F833B
S11307A028878D81882309F086C061E08FE10E944B
S11307B0520161E08EE10E9452018F81882381F50C
S11307C08E81282F30E080E496E0289FA001299FA5
S11307D0500D389F500D112425E030E0CA01B901B5
S11307E00E94ED04CB01092E000CAA0BBB0B8983DC
S11307F09A83AB83BC8389819A81AB81BC8188272E
S1130800AA27BB27892F9A2FAB2FBB27682F8BE4EE
S11308100E949D038981682F8AE40E949D0332C04F
S11308208F81813079F58E81282F30E080E89CE03B
S1130830289FA001299F500D389F500D112425E0B9
S113084030E0CA01B9010E94ED04CB01092E000C6D
S1130850AA0BBB0B89839A83AB83BC8389819A815E
S1130860AB81BC818827AA27BB27892F9A2FAB2F5E
S1130870BB27682F8BE40E949D038981682F8AE43B
S11308800E949D038885882349F461E08EE10E94DB
S11308904D0060E08FE10E944D0095C08885813055
S11308A009F091C060E08EE10E944D0061E08FE1AB
S11308B00E944D0088C08D81813009F084C061E0C0
S11308C08AE10E94520161E08BE10E9452018F8112
S11308D0882381F58E81282F30E080E496E0289FDC
S11308E0A001299F500D389F500D112425E030E0C0
S11308F0CA01B9010E94ED04CB01092E000CAA0B18
S1130900BB0B89839A83AB83BC8389819A81AB8136
S1130910BC818827AA27BB27892F9A2FAB2FBB27F7
S1130920682F89E40E949D038981682F88E40E94CE
S11309309D0332C08F81813079F58E81282F30E07C
S113094080E89CE0289FA001299F500D389F500DFE
S1130950112425E030E0CA01B9010E94ED04CB0165
S1130960092E000CAA0BBB0B89839A83AB83BC832F
S113097089819A81AB81BC818827AA27BB27892FCB
S11309809A2FAB2FBB27682F89E40E949D0389818E
S1130990682F88E40E949D038885882349F461E0D8
S11309A08AE10E944D0060E08BE10E944D000BC083
S11309B08885813041F460E08AE10E944D0061E065
S11309C08BE10E944D00000028960FB6F894DEBF1C
S11309D00FBECDBFDF91CF91089597FB072E16F47C
S11309E0009407D077FD09D00E94010507FC05D0CB
S11309F03EF4909581959F4F0895709561957F4F32
S1130A000895AA1BBB1B51E107C0AA1FBB1FA61751
S1130A10B70710F0A61BB70B881F991F5A95A9F7A3
S1110A2080959095BC01CD010895F894FFCF08
S9030000FC
