S01300006368616C6C656E676531342E7372656309
S113000029C0000037C0000035C0000034C0000023
S113001031C000002FC000002DC000002BC0000024
S113002029C0000027C00000EBC3000023C000006B
S113003021C000001FC000001DC000001BC0000044
S113004019C0000017C0000015C0000013C0000054
S113005011C0000011241FBECFE5D8E0DEBFCDBF24
S113006020E0A0E6B0E001C01D92A536B207E1F79A
S11300702CD0F4C3C5CF1F920F9200905F000F9253
S113008011248F939F93AF93BF93CF93DF93CDB7F7
S1130090DEB788EE93E0A0E0B0E080936100909337
S11300A06200A0936300B093640081E080936000D9
S11300B00000DF91CF91BF91AF919F918F910F90ED
S11300C000925F000F901F901895CF93DF93CDB7E8
S11300D0DEB760E072E18AE790E050D3CCD261E011
S11300E08DE07ED161E08FE07BD161E08EE078D15C
S11300F08091610090916200A0916300B0916400CE
S1130100883E9340A105B105C9F48091600088231D
S1130110A9F460E08FE05FD060E08EE05CD061E045
S11301208DE059D081E080936000109261001092BC
S1130130620010926300109264004CC080916100D0
S113014090916200A0916300B0916400883E934056
S1130150A105B105C9F4809160008130A9F460E083
S11301608EE039D060E08DE036D061E08FE033D0AE
S113017082E08093600010926100109262001092FD
S113018063001092640026C0809161009091620027
S1130190A0916300B0916400883E9340A105B1052D
S11301A009F0A6CF80916000823009F0A1CF61E010
S11301B08EE011D060E08DE00ED060E08FE00BD0D7
S11301C0109260001092610010926200109263001D
S11301D0109264008DCFCF93DF9300D0CDB7DEB7FC
S11301E089836A8389818830A0F58A81882F90E089
S11301F00097C1F0019709F0EDC08BE390E02BE389
S113020030E0F9012081622F2981422F50E021E062
S113021030E002C0220F331F4A95E2F7262BFC017F
S11302202083D8C08BE390E02BE330E0F9012081F8
S1130230622F2981422F50E021E030E002C0220FDA
S1130240331F4A95E2F720952623FC012083000002
S1130250C1C08981883008F43DC089818031D0F5DE
S11302608A81882F90E00097D9F0019709F0B2C0F5
S113027088E390E028E330E0F9012081622F2981AE
S1130280222F30E0A9014770552721E030E002C059
S1130290220F331F4A95E2F7262BFC01208319C055
S11302A088E390E028E330E0F9012081622F29817E
S11302B0222F30E0A9014770552721E030E002C029
S11302C0220F331F4A95E2F720952623FC01208351
S11302D0000080C08981803108F43DC08981883163
S11302E0D0F58A81882F90E00097D9F0019709F022
S11302F071C085E390E025E330E0F9012081622FAD
S11303002981222F30E0A9014770552721E030E0F0
S113031002C0220F331F4A95E2F7262BFC012083EB
S113032019C085E390E025E330E0F9012081622FD4
S11303302981222F30E0A9014770552721E030E0C0
S113034002C0220F331F4A95E2F720952623FC01B1
S1130350208300003FC089818831E0F189818032A7
S1130360C8F58A81882F90E00097D9F0019709F0A9
S113037031C082E390E022E330E0F9012081622F72
S11303802981222F30E0A9014770552721E030E070
S113039002C0220F331F4A95E2F7262BFC0120836B
S11303A019C082E390E022E330E0F9012081622F5A
S11303B02981222F30E0A9014770552721E030E040
S11303C002C0220F331F4A95E2F720952623FC0131
S11303D02083000000000F900F90DF91CF910895CB
S11303E0CF93DF9300D0CDB7DEB789836A83898149
S11303F08830A0F58A81882F90E00097C1F001979A
S113040009F0EDC08AE390E02AE330E0F9012081AD
S1130410622F2981422F50E021E030E002C0220FF8
S1130420331F4A95E2F7262BFC012083D8C08AE3C8
S113043090E02AE330E0F9012081622F2981422FE4
S113044050E021E030E002C0220F331F4A95E2F76A
S113045020952623FC0120830000C1C089818830B7
S113046008F43DC089818031D0F58A81882F90E0DD
S11304700097D9F0019709F0B2C087E390E027E331
S113048030E0F9012081622F2981222F30E0A90177
S11304904770552721E030E002C0220F331F4A95F0
S11304A0E2F7262BFC01208319C087E390E027E3C1
S11304B030E0F9012081622F2981222F30E0A90147
S11304C04770552721E030E002C0220F331F4A95C0
S11304D0E2F720952623FC012083000080C0898157
S11304E0803108F43DC089818831D0F58A81882F14
S11304F090E00097D9F0019709F071C084E390E08F
S113050024E330E0F9012081622F2981222F30E099
S1130510A9014770552721E030E002C0220F331FA4
S11305204A95E2F7262BFC01208319C084E390E06E
S113053024E330E0F9012081622F2981222F30E069
S1130540A9014770552721E030E002C0220F331F74
S11305504A95E2F720952623FC01208300003FC042
S113056089818831E0F189818032C8F58A81882FB8
S113057090E00097D9F0019709F031C081E390E051
S113058021E330E0F9012081622F2981222F30E01C
S1130590A9014770552721E030E002C0220F331F24
S11305A04A95E2F7262BFC01208319C081E390E0F1
S11305B021E330E0F9012081622F2981222F30E0EC
S11305C0A9014770552721E030E002C0220F331FF4
S11305D04A95E2F720952623FC01208300000000C1
S11305E00F900F90DF91CF910895CF93DF9300D0B8
S11305F01F92CDB7DEB789836A834B838B818130A9
S1130600C1F48981882F90E09C018981882F90E032
S1130610FC018081682F8A81482F50E081E090E0BE
S113062002C0880F991F4A95E2F7862BF90180834F
S11306301BC08B818823C1F48981882F90E09C01A1
S11306408981882F90E0FC018081682F8A81482F5E
S113065050E081E090E002C0880F991F4A95E2F7CC
S113066080958623F901808300000F900F900F90EE
S1130670DF91CF910895CF93DF93CDB7DEB741E0FB
S113068067E08FE5B2DF60E08AE0AADE41E066E081
S113069084E5ABDF41E065E08BE5A7DF0000DF9197
S11306A0CF910895CF93DF9300D01F92CDB7DEB7DB
S11306B089836A834B838B818130C1F48981882F3C
S11306C090E09C018981882F90E0FC018081682F53
S11306D08A81482F50E081E090E002C0880F991F82
S11306E04A95E2F7862BF90180831BC08B8188230E
S11306F0C1F48981882F90E09C018981882F90E042
S1130700FC018081682F8A81482F50E081E090E0CD
S113071002C0880F991F4A95E2F780958623F90154
S1130720808300000F900F900F90DF91CF91089578
S1130730CF93DF9300D0CDB7DEB789836A838A81F4
S1130740813039F48981882F90E02FEFFC012083D8
S11307500FC08A81882331F48981882F90E0FC01BD
S1130760108206C08981882F90E02A81FC012083B1
S113077000000F900F90DF91CF910895CF93DF93F6
S113078000D000D0CDB7DEB769837A838B839C8396
S113079060E082E5CDDF41E063E083E583DF41E0B3
S11307A061E083E57FDF41E060E083E57BDF898111
S11307B09A81AB81BC8181159442A44FB10521F487
S11307C069EF8CE5B5DF0CC089819A81AB81BC816E
S11307D081159241AA47B10519F46CE78CE5A8DFAD
S11307E041E067E08FE55EDF41E061E089E55ADFE3
S11307F000000F900F900F900F90DF91CF9108950C
S11308001F920F9200905F000F9211248F939F9379
S1130810AF93BF93CF93DF93CDB7DEB780916100E1
S113082090916200A0916300B09164000196A11DB3
S1130830B11D8093610090936200A0936300B09314
S113084064000000DF91CF91BF91AF919F918F9190
S11308500F9000925F000F901F901895F894FFCFAF
S9030000FC
