:100000000C942A000C9434000C9434000C943400AA
:100010000C9434000C9434000C9434000C94340090
:100020000C9434000C9434000C9434000C94340080
:100030000C9434000C9434000C9434000C94340070
:100040000C9434000C9434000C9434000C94340060
:100050000C94340011241FBECFE5D8E0DEBFCDBF25
:100060000E94FC010C949D030C940000883000F564
:10007000662381F0613009F0A5C021E030E0A901DC
:1000800002C0440F551F8A95E2F7CA019BB3892B22
:100090008BBB089521E030E0A90102C0440F551F39
:1000A0008A95E2F7CA0180959BB389238BBB08959B
:1000B00098EF980F983010F5662389F0613009F0B9
:1000C00081C0877021E030E0A90102C0440F551FB4
:1000D0008A95E2F7CA0198B3892B88BB0895877087
:1000E00021E030E0A90102C0440F551F8A95E2F7D4
:1000F000CA01809598B3892388BB089590EF980F23
:10010000983010F5662389F0613009F05BC08F707C
:1001100021E030E0A90102C0440F551F8A95E2F7A3
:10012000CA0195B3892B85BB08958F7021E030E01B
:10013000A90102C0440F551F8A95E2F7CA018095B4
:1001400095B3892385BB089599EE980F9930D0F522
:100150006623E9F06130B1F595E6899F212D1124E0
:10016000982F921B9695920F92959F7057E1959FAD
:100170008019112421E030E0A90102C0440F551F6D
:100180008A95E2F7CA0192B3892B82BB089595E65E
:10019000899F212D1124982F921B9695920F92954D
:1001A0009F7057E1959F8019112421E030E0A9014B
:1001B00002C0440F551F8A95E2F7CA01809592B399
:1001C000892382BB0895883098F421E030E0082E1E
:1001D00002C0220F331F0A94E2F799B3292330E0BB
:1001E000A90102C0559547958A95E2F7CA0108957D
:1001F00098EF980F9830A0F4482F477021E030E036
:10020000042E02C0220F331F0A94E2F786B328237C
:10021000822F90E002C0959587954A95E2F7089560
:1002200090EF980F9830A0F4482F4F7021E030E005
:10023000042E02C0220F331F0A94E2F783B328234F
:10024000822F90E002C0959587954A95E2F7089530
:1002500099EE980F993008F595E6899F212D112484
:10026000982F921B9695920F92959F70482F57E169
:10027000959F4019112421E030E0042E02C0220F86
:10028000331F0A94E2F780B32823822F90E002C044
:10029000959587954A95E2F7089580E0089588300E
:1002A00000F5662381F0613009F0A5C021E030E05F
:1002B000A90102C0440F551F8A95E2F7CA019AB3FB
:1002C000892B8ABB089521E030E0A90102C0440FC8
:1002D000551F8A95E2F7CA0180959AB389238ABB94
:1002E000089598EF980F983010F5662389F06130E3
:1002F00009F081C0877021E030E0A90102C0440FFD
:10030000551F8A95E2F7CA0197B3892B87BB0895D9
:10031000877021E030E0A90102C0440F551F8A9583
:10032000E2F7CA01809597B3892387BB089590EFC0
:10033000980F983010F5662389F0613009F05BC0A2
:100340008F7021E030E0A90102C0440F551F8A954B
:10035000E2F7CA0194B3892B84BB08958F7021E022
:1003600030E0A90102C0440F551F8A95E2F7CA0187
:10037000809594B3892384BB089599EE980F9930A2
:10038000D0F56623E9F06130B1F595E6899F212D1E
:100390001124982F921B9695920F92959F7057E17A
:1003A000959F8019112421E030E0A90102C0440F7B
:1003B000551F8A95E2F7CA0191B3892B81BB089535
:1003C00095E6899F212D1124982F921B9695920FC7
:1003D00092959F7057E1959F8019112421E030E09C
:1003E000A90102C0440F551F8A95E2F7CA01809502
:1003F00091B3892381BB08950E946F0360E08AE076
:100400000E944F0161E08DE00E944F0161E08EE0AB
:100410000E944F0161E08FE00E944F0100E0C02F79
:1004200061E08DE00E943600D4E1102F8AE00E9446
:10043000E300813089F4112349F00EC061E08FE0C0
:100440000E9436006C2F8DE00E9436008AE00E94E8
:10045000E3008111F3CFFBC062E370E080E090E045
:100460000E947F038AE00E94E30081111FC01130C7
:1004700009F0F9C06C2F8DE00E9436006C2F8EE0E1
:100480000E94360061E08FE00E94360068EE73E063
:1004900080E090E00E947F0361E08DE00E943600E2
:1004A0006C2F8FE00E9436001C2FDDC08AE00E9476
:1004B000E300813089F4113049F00EC061E08FE033
:1004C0000E9436006C2F8DE00E9436008AE00E9468
:1004D000E3008111F3CF1C2F61E08DE00E94360014
:1004E000D15009F0A3CF602F8DE00E94360061E06B
:1004F0008FE00E943600D4E1102F8AE00E94E300D2
:10050000882341F0111106C08AE00E94E3008111A6
:10051000FBCFADC062E370E080E090E00E947F031B
:100520008AE00E94E300811117C0113009F0ABC0CE
:100530006C2F8DE00E9436006C2F8EE00E943600FA
:1005400061E08FE00E94360068EE73E080E090E0AA
:100550000E947F031C2F97C08AE00E94E300813035
:1005600041F4113031F48AE00E94E3008111FBCFA5
:100570001C2FD15011F6602F8FE00E94360061E0F1
:100580008EE00E943600D4E1102F8AE00E94E30042
:10059000882389F0112349F00EC061E08FE00E94AA
:1005A00036006C2F8EE00E9436008AE00E94E30045
:1005B0008111F3CF6CC062E370E080E090E00E94B4
:1005C0007F038AE00E94E30081111FC0113009F00F
:1005D0006AC06C2F8DE00E9436006C2F8EE00E9466
:1005E000360061E08FE00E94360068EE73E080E044
:1005F00090E00E947F0361E08EE00E9436006C2F45
:100600008FE00E9436001C2F4EC08AE00E94E3005B
:10061000813089F4113049F00EC061E08FE00E9412
:1006200036006C2F8EE00E9436008AE00E94E300C4
:100630008111F3CF1C2F61E08EE00E943600D15073
:1006400009F0A3CF602F8EE00E943600E9CE62E36E
:1006500070E080E090E00E947F038AE00E94E30067
:10066000811125C007CF8AE00E94E30035CF62E305
:1006700070E080E090E00E947F038AE00E94E30047
:1006800081111DC055CF8AE00E94E30072CF62E362
:1006900070E080E090E00E947F038AE00E94E30027
:1006A000811115C096CF8AE00E94E300C4CF8AE092
:1006B0000E94E300813009F409CF11E00DCF8AE0F8
:1006C0000E94E300813009F44ECF11E052CF8AE05E
:1006D0000E94E300813009F4A8CF11E0ACCF88B7C5
:1006E000826088BF12BE89EF8CBF83B7886083BFEA
:1006F00083B7826083BF83B7816083BF08950F9300
:100700001F938B019C0112BE672B682B692B91F004
:1007100040E050E0BA0108B601FEFDCF88B7826024
:1007200088BF4F5F5F4F6F4F7F4F04171507260736
:0E073000370789F71F910F910895F894FFCFB6
:00000001FF
