:100000000C942A000C943F000C943F000C943F0089
:100010000C943F000C943F000C943F000C943F0064
:100020000C943F000C943F000C943F000C943F0054
:100030000C943F000C943F000C943F000C943F0044
:100040000C943F000C943F000C943F000C943F0034
:100050000C943F0011241FBECFE5D8E0DEBFCDBF1A
:1000600011E0A0E6B0E0E4ECF3E302C005900D92ED
:10007000AA3CB107D9F70E94070D0C94E0190C9423
:100080000000CF93DF93CDB7DEB70E946A1761E01F
:1000900088E00E94D81561E089E00E94D81561E0EF
:1000A0008AE00E94D81561E08BE00E94D81561E0DB
:1000B0008AE10E94D81500000000DF91CF910895D9
:1000C000CF93DF931F92CDB7DEB7898361E089813B
:1000D0000E94331400000F90DF91CF910895CF93C9
:1000E000DF931F92CDB7DEB7898360E089810E94DC
:1000F000331400000F90DF91CF910895CF93DF93D9
:10010000CDB7DEB760970FB6F894DEBF0FBECDBF98
:10011000988B8F878F8598899C838B8328E0CE016D
:100120000796FC01322F11923A95E9F71A8219824B
:1001300085C08F8598899E838D838AE10E946000A7
:100140008BE10E946F008EE10E946F008FE10E94A0
:100150006F004D815E819A01ADECBCEC0E94D1191B
:10016000969587959695879596958795880F991F6B
:100170009C01220F331F220F331F820F931FFA019E
:10018000E81BF90BCF019C838B838D819E819C01A1
:10019000ADECBCEC0E94D119969587959695879504
:1001A000969587959E838D838B819C8181709927FD
:1001B00098878F838B819C818270992796958795EC
:1001C00099279A8789878B819C8184709927969536
:1001D00087959695879599279C878B878B819C819E
:1001E0008870992796958795969587959695879582
:1001F00099279E878D878F819885682F88E00E9438
:10020000331489859A85682F89E00E9433148B8581
:100210009C85682F8AE00E9433148D859E85682F07
:100220008BE00E94331461E070E080E090E00E9477
:100230008E1789819A8101969A83898389819A810F
:100240000A9708F476CF000060960FB6F894DEBFE8
:100250000FBECDBFDF91CF910895CF93DF93CDB780
:10026000DEB761E085E10E94D81561E086E10E9479
:10027000D81561E087E10E94D81560E082E10E9414
:10028000D81560E083E10E94D81560E084E10E9407
:10029000D81561E085E10E94331461E086E10E9497
:1002A000331461E087E10E94331461E082E10E942F
:1002B000331461E083E10E94331461E084E10E9421
:1002C00033140000DF91CF910895CF93DF93CDB722
:1002D000DEB729970FB6F894DEBF0FBECDBF82E11F
:1002E0008C8383E18D8384E18E8385E18F8386E136
:1002F000888787E189871B82198289C08F8161E0A5
:100300000E943314888561E00E943314898561E07E
:100310000E9433148981882F90E09E01295F3F4F0E
:10032000820F931FFC01808160E00E9433141A82C7
:1003300067C08A81882F90E09E012C5F3F4F820F1B
:10034000931FFC0180810E943815882309F055C055
:1003500000008A81882F90E09E012C5F3F4F820F22
:10036000931FFC0180810E943815882391F38981B5
:10037000882F90E081309105B9F08230910531F1FC
:10038000892BD9F58A81882319F481E08B8330C0C9
:100390008A81813019F484E08B832AC08A8182307B
:1003A00039F587E08B8324C08A81882319F482E0A1
:1003B0008B8320C08A81813019F485E08B831AC039
:1003C0008A818230B9F488E08B8314C08A818823C3
:1003D00019F483E08B8310C08A81813019F486E0A0
:1003E0008B830AC08A81823039F489E08B8304C010
:1003F000000003C0000001C000008A818F5F8A8373
:100400008A81833008F495CF89818F5F89838981C0
:10041000833008F473CF8B8129960FB6F894DEBF32
:100420000FBECDBFDF91CF910895CF93DF931F9281
:10043000CDB7DEB7898361E081E00E94D81561E025
:1004400082E00E94D81561E083E00E94D81561E047
:1004500084E00E94D81561E085E00E94D81561E033
:1004600086E00E94D81561E087E00E94D81560E020
:1004700083E00E94331461E089810E945E026EE095
:1004800089810E945E028981882379F08981813087
:1004900061F463E389810E945E0262E389810E94C4
:1004A0005E0268E289810E945E0266E089810E94A4
:1004B0005E0200000F90DF91CF9108950F931F937C
:1004C000CF93DF93CDB7DEB7CE55D1090FB6F894F1
:1004D000DEBF0FBECDBF9E01235A3F4FF90180837F
:1004E000CE01825A9F4FFC01608360E081E00E9450
:1004F000331460E082E00E943314CE01835A9F4F90
:10050000FC018081882309F417C2CE01835A9F4FD2
:10051000FC018081813009F00FC2CE01825A9F4FC9
:10052000FC018081882F90E08071992795958795AF
:10053000959587959595879595958795682F84E0EE
:100540000E943314CE01825A9F4FFC018081882F74
:1005500090E08072992795958795959587959595C3
:1005600087959595879595958795682F85E00E9445
:100570003314CE01825A9F4FFC018081882F90E076
:1005800080749927082E892F000C881F990B000C66
:10059000881F991F682F86E00E943314CE01825A6B
:1005A0009F4FFC018081881F8827881F682F87E064
:1005B0000E94331461E083E00E94331480E090E0F5
:1005C000A0E0B0E48D839E83AF83B88720E030E065
:1005D0004AEF54E46D817E818F8198850E94641971
:1005E000DC01CB018DA79EA7AFA7B8AB20E030E020
:1005F00040E85FE36DA57EA58FA598A90E944418E9
:1006000088232CF481E090E09AAB89AB3FC020E0D6
:100610003FEF4FE757E46DA57EA58FA598A90E94EF
:100620005F1918164CF520E030E040E251E46D818E
:100630007E818F8198850E946419DC01CB01BC0109
:10064000CD010E94BB18DC01CB019AAB89AB0FC076
:1006500088EC90E09CAB8BAB8BA99CA90197F1F740
:100660009CAB8BAB89A99AA901979AAB89AB89A955
:100670009AA9892B69F714C06DA57EA58FA598A9A5
:100680000E94BB18DC01CB019AAB89AB89A99AA95E
:100690009EAB8DAB8DA99EA90197F1F79EAB8DAB5B
:1006A00060E083E00E94331480E090E0A8ECB2E4C4
:1006B0008D879E87AF87B88B2BEA3AEA4AE250E4EF
:1006C0006D857E858F8598890E946419DC01CB0138
:1006D000898B9A8BAB8BBC8B8D859E85AF85B889BA
:1006E0009C01AD01BC01CD010E94D817DC01CB01FA
:1006F0008D8B9E8BAF8BB88F20E030E040E85FE3BE
:1007000069897A898B899C890E94441888231CF402
:1007100081E0898FB2C020E03FEF4FE757E46D8959
:100720007E898F89988D0E945F1918160CF07BC006
:1007300020E030E04AE754E46D857E858F85988916
:100740000E944918DC01CB018A8F9B8FAC8FBD8F33
:1007500020E030E04AEF54E46A8D7B8D8C8D9D8DD6
:100760000E946419DC01CB018E8F9F8FA8A3B9A3CF
:1007700020E030E040E85FE36E8D7F8D88A199A195
:100780000E94441888232CF481E090E09BA38AA364
:100790003FC020E03FEF4FE757E46E8D7F8D88A18B
:1007A00099A10E945F1918164CF520E030E040E254
:1007B00051E46A8D7B8D8C8D9D8D0E946419DC01C6
:1007C000CB01BC01CD010E94BB18DC01CB019BA376
:1007D0008AA30FC088EC90E09DA38CA38CA19DA15F
:1007E0000197F1F79DA38CA38AA19BA101979BA3DD
:1007F0008AA38AA19BA1892B69F73FC06E8D7F8D4B
:1008000088A199A10E94BB18DC01CB019BA38AA3FC
:100810008AA19BA19FA38EA38EA19FA10197F1F70F
:100820009FA38EA32AC020E030E04FE753E46989FC
:100830007A898B899C890E945F191816ACF46D899E
:100840007E898F89988D0E94BB18DC01CB0199A706
:1008500088A788A599A59BA78AA78AA59BA5019784
:10086000F1F79BA78AA70FC069897A898B899C8930
:100870000E94BB18DC01CB01898F898D8CA78CA5C8
:100880008A95F1F78CA7CE01825A9F4F9E01225A7A
:100890003F4FF90120812295207FFC012083CE016A
:1008A000825A9F4FFC018081882F90E080719927A8
:1008B0009595879595958795959587959595879520
:1008C000682F84E00E943314CE01825A9F4FFC01AE
:1008D0008081882F90E080729927959587959595CE
:1008E0008795959587959595879595958795682F83
:1008F00085E00E943314CE01825A9F4FFC01808113
:10090000882F90E080749927082E892F000C881F6B
:10091000990B000C881F991F682F86E00E943314E2
:10092000CE01825A9F4FFC018081881F8827881F33
:10093000682F87E00E94331461E083E00E94331443
:1009400080E090E0A0E0B0E489879A87AB87BC871D
:100950008E010D5A1F4F20E030E04AEF54E46985C4
:100960007A858B859C850E946419DC01CB01F80196
:1009700080839183A283B383CE018D5A9F4F20E061
:1009800030E040E85FE3FC01608171818281938106
:100990000E94441888234CF4CE01895A9F4F21E0CD
:1009A00030E0FC013183208369C0CE018D5A9F4F16
:1009B00020E03FEF4FE757E4FC01608171818281C5
:1009C00093810E945F1918160CF046C020E030E0B9
:1009D00040E251E469857A858B859C850E94641983
:1009E000DC01CB018E01095A1F4FBC01CD010E94D1
:1009F000BB18DC01CB01F8019183808324C0CE01B8
:100A0000875A9F4F28EC30E0FC0131832083CE01D0
:100A1000875A9F4FFC01808191810197F1F79E01D8
:100A2000275A3F4FF90191838083CE01895A9F4F06
:100A30009E01295A3F4FF90120813181215031090E
:100A4000FC0131832083CE01895A9F4FFC018081B4
:100A50009181892BA1F62CC08E01095A1F4FCE011E
:100A60008D5A9F4FFC0160817181828193810E9428
:100A7000BB18DC01CB01F80191838083CE01855A3C
:100A80009F4F9E01295A3F4FF90120813181FC017E
:100A900031832083CE01855A9F4FFC018081918153
:100AA0000197F1F79E01255A3F4FF9019183808309
:100AB00060E083E00E94331480E090E0A8ECB2E4B0
:100AC00089839A83AB83BC832BEA3AEA4AE250E4F7
:100AD00069817A818B819C810E946419DC01CB0140
:100AE0008FAB98AFA9AFBAAF89819A81AB81BC8136
:100AF0009C01AD01BC01CD010E94D817DC01CB01E6
:100B00008BAF9CAFADAFBEAF20E030E040E85FE31D
:100B10006FA978AD89AD9AAD0E94441888231CF462
:100B200081E08FAF18C120E03FEF4FE757E46BAD96
:100B30007CAD8DAD9EAD0E945F1918160CF0CDC036
:100B400020E030E04AE754E469817A818B819C811E
:100B50000E944918DC01CB019E01205C3F4FF90146
:100B600080839183A283B3838E010C5B1F4FCE01E0
:100B7000805C9F4F20E030E04AEF54E4FC0160814C
:100B80007181828193810E946419DC01CB01F8019B
:100B900080839183A283B383CE018C5B9F4F20E03F
:100BA00030E040E85FE3FC016081718182819381E4
:100BB0000E94441888234CF4CE01885B9F4F21E0AB
:100BC00030E0FC01318320836DC0CE018C5B9F4FF0
:100BD00020E03FEF4FE757E4FC01608171818281A3
:100BE00093810E945F1918160CF04AC0CE01805CF8
:100BF0009F4F20E030E040E251E4FC0160817181D0
:100C0000828193810E946419DC01CB018E01085B13
:100C10001F4FBC01CD010E94BB18DC01CB01F801C4
:100C20009183808324C0CE01865B9F4F28EC30E007
:100C3000FC0131832083CE01865B9F4FFC018081C4
:100C400091810197F1F79E01265B3F4FF901918356
:100C50008083CE01885B9F4F9E01285B3F4FF90147
:100C60002081318121503109FC0131832083CE0163
:100C7000885B9F4FFC0180819181892BA1F66BC01D
:100C80008E01085B1F4FCE018C5B9F4FFC01608182
:100C90007181828193810E94BB18DC01CB01F80134
:100CA00091838083CE01845B9F4F9E01285B3F4FE1
:100CB000F90120813181FC0131832083CE01845BE5
:100CC0009F4FFC01808191810197F1F79E01245B88
:100CD0003F4FF901918380833EC020E030E04FE731
:100CE00053E46FA978AD89AD9AAD0E945F191816CB
:100CF0004CF58E01025B1F4F6BAD7CAD8DAD9EAD93
:100D00000E94BB18DC01CB01F80191838083CE01E6
:100D1000805B9F4F9E01225B3F4FF9012081318113
:100D2000FC0131832083CE01805B9F4FFC018081D9
:100D300091810197F1F79E01205B3F4FF90191836B
:100D400080831CC06FA978AD89AD9AAD0E94BB1895
:100D5000DC01CB018FAFCE018E5A9F4F2FADFC012E
:100D60002083CE018E5A9F4FFC018081282F2A9527
:100D7000F1F7CE018E5A9F4FFC0120830000C25A2A
:100D8000DF4F0FB6F894DEBF0FBECDBFDF91CF911E
:100D90001F910F910895CF93DF93CDB7DEB7EE97F4
:100DA0000FB6F894DEBF0FBECDBF8DAF6EAF61E062
:100DB00081E00E94331460E082E00E9433148DAD24
:100DC000882309F4FCC08DAD813009F0F8C08EADE8
:100DD000882F90E0807199279595879595958795AF
:100DE0009595879595958795682F84E00E94331493
:100DF0008EAD882F90E0807299279595879595956F
:100E00008795959587959595879595958795682F5D
:100E100085E00E9433148EAD882F90E0807499276E
:100E2000082E892F000C881F990B000C881F991F12
:100E3000682F86E00E9433148EAD881F8827881F94
:100E4000682F87E00E94331461E083E00E9433142E
:100E500080E090E0A0E0B0E489879A87AB87BC8708
:100E600020E030E04AEF54E469857A858B859C85E3
:100E70000E946419DC01CB018D879E87AF87B88BF8
:100E800020E030E040E85FE36D857E858F859889BE
:100E90000E94441888232CF481E090E09A8B898B7F
:100EA0003FC020E03FEF4FE757E46D857E858F859B
:100EB00098890E945F1918164CF520E030E040E256
:100EC00051E469857A858B859C850E946419DC01D3
:100ED000CB01BC01CD010E94BB18DC01CB019A8B78
:100EE000898B0FC088EC90E09C8B8B8B8B899C89C5
:100EF0000197F1F79C8B8B8B89899A8901979A8B43
:100F0000898B89899A89892B69F714C06D857E85BB
:100F10008F8598890E94BB18DC01CB019A8B898B45
:100F200089899A899E8B8D8B8D899E890197F1F78E
:100F30009E8B8D8B60E083E00E9433148EAD829592
:100F4000807F8EAF8EAD882F90E080719927959528
:100F50008795959587959595879595958795682F0C
:100F600084E00E9433148EAD882F90E08072992720
:100F70009595879595958795959587959595879559
:100F800095958795682F85E00E9433148EAD882F44
:100F900090E080749927082E892F000C881F990BE8
:100FA000000C881F991F682F86E00E9433148EADB5
:100FB000881F8827881F682F87E00E94331461E00C
:100FC00083E00E94331480E090E0A0E0B0E48D83E1
:100FD0009E83AF83B88720E030E04AEF54E46D8110
:100FE0007E818F8198850E946419DC01CB018BABD7
:100FF0009CABADABBEAB20E030E040E85FE36BA95B
:101000007CA98DA99EA90E94441888232CF481E014
:1010100090E098AF8FAB3FC020E03FEF4FE757E441
:101020006BA97CA98DA99EA90E945F1918164CF581
:1010300020E030E040E251E46D817E818F8198852F
:101040000E946419DC01CB01BC01CD010E94BB18D8
:10105000DC01CB0198AF8FAB0FC088EC90E09AAF6A
:1010600089AF89AD9AAD0197F1F79AAF89AF8FA992
:1010700098AD019798AF8FAB8FA998AD892B69F781
:1010800014C06BA97CA98DA99EA90E94BB18DC0184
:10109000CB0198AF8FAB8FA998AD9CAF8BAF8BADC9
:1010A0009CAD0197F1F79CAF8BAF60E083E00E94AD
:1010B000331480E090E0A8ECB2E489839A83AB8398
:1010C000BC832BEA3AEA4AE250E469817A818B8157
:1010D0009C810E946419DC01CB018F8B988FA98FB2
:1010E000BA8F89819A81AB81BC819C01AD01BC0121
:1010F000CD010E94D817DC01CB018B8F9C8FAD8F67
:10110000BE8F20E030E040E85FE36F89788D898D05
:101110009A8D0E94441888231CF481E08F8FB2C0FE
:1011200020E03FEF4FE757E46B8D7C8D8D8D9E8DDA
:101130000E945F1918160CF07BC020E030E04AE7EF
:1011400054E469817A818B819C810E944918DC0179
:10115000CB0188A399A3AAA3BBA320E030E04AEF68
:1011600054E468A179A18AA19BA10E946419DC01C1
:10117000CB018CA39DA3AEA3BFA320E030E040E849
:101180005FE36CA17DA18EA19FA10E9444188823DA
:101190002CF481E090E099A788A73FC020E03FEFC2
:1011A0004FE757E46CA17DA18EA19FA10E945F191A
:1011B00018164CF520E030E040E251E468A179A136
:1011C0008AA19BA10E946419DC01CB01BC01CD0165
:1011D0000E94BB18DC01CB0199A788A70FC088EC3F
:1011E00090E09BA78AA78AA59BA50197F1F79BA7EB
:1011F0008AA788A599A5019799A788A788A599A5E1
:10120000892B69F73FC06CA17DA18EA19FA10E948F
:10121000BB18DC01CB0199A788A788A599A59DA734
:101220008CA78CA59DA50197F1F79DA78CA72AC037
:1012300020E030E04FE753E46F89788D898D9A8DF7
:101240000E945F191816ACF46B8D7C8D8D8D9E8D70
:101250000E94BB18DC01CB019FA78EA78EA59FA57E
:1012600099AB88AB88A999A90197F1F799AB88AB9D
:101270000FC06F89788D898D9A8D0E94BB18DC0113
:10128000CB018F8F8F8D8AAB8AA98A95F1F78AABB4
:101290000000EE960FB6F894DEBF0FBECDBFDF9113
:1012A000CF910895CF93DF9300D01F92CDB7DEB7D3
:1012B00089837B836A830DC08A819B81FC01808145
:1012C000682F89810E94CB068A819B8101969B832E
:1012D0008A838A819B81FC018081882369F70000D1
:1012E0000F900F900F90DF91CF910895CF93DF93E0
:1012F00000D01F92CDB7DEB789836A834B839A8172
:101300008B81890F682F89810E945E0200000F90F7
:101310000F900F90DF91CF910895CF93DF9300D07E
:1013200000D01F92CDB7DEB789837B836A834C835D
:101330002D834D816C8189810E9476098A819B81F0
:10134000BC0189810E94520900000F900F900F90FC
:101350000F900F90DF91CF910895CF93DF931F925D
:10136000CDB7DEB7898361E089810E945E0200000B
:101370000F90DF91CF910895CF93DF9300D000D0ED
:101380001F92CDB7DEB78A837C836B834D838D81BB
:10139000882F90E00896880F880F880F682F8A8121
:1013A0000E945E02198210C08981882F90E02B81F3
:1013B0003C81820F931FFC018081682F8A810E94EB
:1013C000CB0689818F5F89838981883068F300002B
:1013D0000F900F900F900F900F90DF91CF91089585
:1013E000CF93DF9300D000D0CDB7DEB789836A8377
:1013F0004B832C834B816A8189810E9476096C81A1
:1014000089810E94CB0600000F900F900F900F90E3
:10141000DF91CF910895CF93DF93CDB7DEB7C1545D
:10142000D1090FB6F894DEBF0FBECDBF9E012F5B72
:101430003F4FF901808328E0E0E6F0E0CE0101961D
:10144000DC0101900D922A95E1F788E0E8E6F0E0F2
:10145000DE01199601900D928A95E1F788E0E0E7A8
:10146000F0E0DE01519601900D928A95E1F788E057
:10147000E8E7F0E0DE01599601900D928A95E1F7D8
:1014800088E0E0E8F0E0DE01919601900D928A9507
:10149000E1F788E0E8E8F0E0DE01999601900D922E
:1014A0008A95E1F788E0E0E9F0E0DE01D19601906D
:1014B0000D928A95E1F788E0E8E9F0E0DE01D9963F
:1014C00001900D928A95E1F7CE018F5B9F4F40E02E
:1014D0009E012F5F3F4FB901FC0180810E94BC0932
:1014E0009E01275F3F4FCE018F5B9F4F41E0B901C7
:1014F000FC0180810E94BC099E012F5E3F4FCE01FE
:101500008F5B9F4F42E0B901FC0180810E94BC09C2
:101510009E01275E3F4FCE018F5B9F4F43E0B90195
:10152000FC0180810E94BC099E012F5D3F4FCE01CE
:101530008F5B9F4F44E0B901FC0180810E94BC0990
:101540009E01275D3F4FCE018F5B9F4F45E0B90164
:10155000FC0180810E94BC099E012F5C3F4FCE019F
:101560008F5B9F4F46E0B901FC0180810E94BC095E
:101570009E01275C3F4FCE018F5B9F4F47E0B90133
:10158000FC0180810E94BC090000CF5BDF4F0FB6D9
:10159000F894DEBF0FBECDBFDF91CF910895CF93FA
:1015A000DF93CDB7DEB72F970FB6F894DEBF0FBE2F
:1015B000CDBF8F878F850E940B0A80E090E0A0EA64
:1015C000B0E489839A83AB83BC8320E030E04AEFA8
:1015D00054E469817A818B819C810E946419DC01C9
:1015E000CB018D839E83AF83B88720E030E040E855
:1015F0005FE36D817E818F8198850E9444188823E6
:101600002CF481E090E09A8789873FC020E03FEF8B
:101610004FE757E46D817E818F8198850E945F1925
:1016200018164CF520E030E040E251E469817A81FF
:101630008B819C810E946419DC01CB01BC01CD012E
:101640000E94BB18DC01CB019A8789870FC088EC08
:1016500090E09C878B878B859C850197F1F79C8711
:101660008B8789859A8501979A87898789859A8545
:10167000892B69F714C06D817E818F8198850E94C6
:10168000BB18DC01CB019A87898789859A859E875B
:101690008D878D859E850197F1F79E878D8720E048
:1016A00046E060E88F850E94F00921E047E060E8AD
:1016B0008F850E94F00922E048E060E88F850E9453
:1016C000F00923E049E060E88F850E94F00924E0FA
:1016D00046E060EC8F850E94F00925E047E060EC71
:1016E0008F850E94F00926E048E060EC8F850E941B
:1016F000F00927E049E060EC8F850E94F0090000C6
:101700002F960FB6F894DEBF0FBECDBFDF91CF91FD
:101710000895CF93DF93CDB7DEB7C154D1090FB68B
:10172000F894DEBF0FBECDBF9E012F5B3F4FF90186
:10173000808328E0E0E6F0E0CE010196DC01019034
:101740000D922A95E1F788E0E8E6F0E0DE011996CF
:1017500001900D928A95E1F788E0E0E7F0E0DE0184
:10176000519601900D928A95E1F788E0E8E7F0E064
:10177000DE01599601900D928A95E1F788E0E0E844
:10178000F0E0DE01919601900D928A95E1F788E0F4
:10179000E0EAF0E0DE01999601900D928A95E1F77A
:1017A00088E0E8EAF0E0DE01D19601900D928A959A
:1017B000E1F788E0E8E9F0E0DE01D99601900D92CA
:1017C0008A95E1F7CE018F5B9F4F40E09E012F5F2E
:1017D0003F4FB901FC0180810E94BC099E01275F37
:1017E0003F4FCE018F5B9F4F41E0B901FC018081EB
:1017F0000E94BC099E012F5E3F4FCE018F5B9F4F21
:1018000042E0B901FC0180810E94BC099E01275E73
:101810003F4FCE018F5B9F4F43E0B901FC018081B8
:101820000E94BC099E012F5D3F4FCE018F5B9F4FF1
:1018300044E0B901FC0180810E94BC099E01275D42
:101840003F4FCE018F5B9F4F45E0B901FC01808186
:101850000E94BC099E012F5C3F4FCE018F5B9F4FC2
:1018600046E0B901FC0180810E94BC099E01275C11
:101870003F4FCE018F5B9F4F47E0B901FC01808154
:101880000E94BC090000CF5BDF4F0FB6F894DEBFAB
:101890000FBECDBFDF91CF910895CF93DF93CDB72A
:1018A000DEB72F970FB6F894DEBF0FBECDBF8F8780
:1018B0008F850E94890B80E090E0A0EAB0E48983E4
:1018C0009A83AB83BC8320E030E04AEF54E4698123
:1018D0007A818B819C810E946419DC01CB018D830C
:1018E0009E83AF83B88720E030E040E85FE36D81FE
:1018F0007E818F8198850E94441888232CF481E092
:1019000090E09A8789873FC020E03FEF4FE757E498
:101910006D817E818F8198850E945F1918164CF524
:1019200020E030E040E251E469817A818B819C8142
:101930000E946419DC01CB01BC01CD010E94BB18DF
:10194000DC01CB019A8789870FC088EC90E09C87E7
:101950008B878B859C850197F1F79C878B87898581
:101960009A8501979A87898789859A85892B69F74E
:1019700014C06D817E818F8198850E94BB18DC0127
:10198000CB019A87898789859A859E878D878D85E2
:101990009E850197F1F79E878D8720E046E060E8FD
:1019A0008F850E94F00921E047E060E88F850E9462
:1019B000F00922E048E060E88F850E94F00923E00A
:1019C00049E060E88F850E94F00924E046E060EC81
:1019D0008F850E94F00925E047E060EC8F850E942A
:1019E000F00926E048E060EC8F850E94F00927E0CE
:1019F00049E060EC8F850E94F00900002F960FB639
:101A0000F894DEBF0FBECDBFDF91CF9108950F9345
:101A10001F93CF93DF93CDB7DEB7C058D1090FB670
:101A2000F894DEBF0FBECDBF81E00E9415020E9478
:101A30002D0119821A821982F1C021E040E86EEB73
:101A400070E081E00E948D0980E090E0AAE7B4E4B4
:101A50008F839887A987BA8720E030E04AEF54E463
:101A60006F81788589859A850E946419DC01CB0194
:101A700089AB9AABABABBCAB20E030E040E85FE3B6
:101A800069A97AA98BA99CA90E94441888232CF4DF
:101A900081E090E09EAB8DAB3FC020E03FEF4FE791
:101AA00057E469A97AA98BA99CA90E945F19181605
:101AB0004CF520E030E040E251E46F817885898583
:101AC0009A850E946419DC01CB01BC01CD010E9402
:101AD000BB18DC01CB019EAB8DAB0FC088EC90E056
:101AE00098AF8FAB8FA998AD0197F1F798AF8FABF7
:101AF0008DA99EA901979EAB8DAB8DA99EA9892B1F
:101B000069F714C069A97AA98BA99CA90E94BB187E
:101B1000DC01CB019EAB8DAB8DA99EA99AAF89AF9D
:101B200089AD9AAD0197F1F79AAF89AF81E00E9434
:101B3000AD0980E090E0AAE7B4E48BA39CA3ADA339
:101B4000BEA320E030E04AEF54E46BA17CA18DA15C
:101B50009EA10E946419DC01CB018FA398A7A9A7BD
:101B6000BAA720E030E040E85FE36FA178A589A53F
:101B70009AA50E94441888232CF481E090E09CA749
:101B80008BA73FC020E03FEF4FE757E46FA178A558
:101B900089A59AA50E945F1918164CF520E030E03F
:101BA00040E251E46BA17CA18DA19EA10E94641929
:101BB000DC01CB01BC01CD010E94BB18DC01CB01D3
:101BC0009CA78BA70FC088EC90E09EA78DA78DA542
:101BD0009EA50197F1F79EA78DA78BA59CA50197C0
:101BE0009CA78BA78BA59CA5892B69F714C06FA117
:101BF00078A589A59AA50E94BB18DC01CB019CA7FA
:101C00008BA78BA59CA598AB8FA78FA598A90197AB
:101C1000F1F798AB8FA789818F5F898389818430A1
:101C200008F40BCF22E040E86CEC70E081E00E9409
:101C30008D0980E090E0AAEFB4E48F87988BA98BA0
:101C4000BA8B8E010B5B1F4F20E030E04AEF54E46B
:101C50006F85788989899A890E946419DC01CB0192
:101C6000F80180839183A283B383CE018B5B9F4F66
:101C700020E030E040E85FE3FC0160817181828117
:101C800093810E94441888234CF4CE01875B9F4FB8
:101C900021E030E0FC013183208369C0CE018B5B01
:101CA0009F4F20E03FEF4FE757E4FC0160817181D7
:101CB000828193810E945F1918160CF046C020E0C3
:101CC00030E040E251E46F85788989899A890E94E1
:101CD0006419DC01CB018E01075B1F4FBC01CD01F4
:101CE0000E94BB18DC01CB01F8019183808324C0E2
:101CF000CE01855B9F4F28EC30E0FC0131832083CF
:101D0000CE01855B9F4FFC01808191810197F1F7A6
:101D10009E01255B3F4FF90191838083CE01875B54
:101D20009F4F9E01275B3F4FF90120813181215058
:101D30003109FC0131832083CE01875B9F4FFC0179
:101D400080819181892BA1F62CC08E01075B1F4FEA
:101D5000CE018B5B9F4FFC016081718182819381F9
:101D60000E94BB18DC01CB01F80191838083CE0176
:101D7000835B9F4F9E01275B3F4FF901208131819B
:101D8000FC0131832083CE01835B9F4FFC01808166
:101D900091810197F1F79E01235B3F4FF9019183F8
:101DA000808321E040E869ED70E081E00E948D09C8
:101DB00021E040EC69EE70E081E00E948D0980E056
:101DC00090E0AAEFB4E48B839C83AD83BE8320E0D4
:101DD00030E04AEF54E46B817C818D819E810E94CA
:101DE0006419DC01CB018BAF9CAFADAFBEAF20E07F
:101DF00030E040E85FE36BAD7CAD8DAD9EAD0E9401
:101E00004418882344F421E030E0CE01CF96FC0151
:101E1000318320835FC020E03FEF4FE757E46BAD95
:101E20007CAD8DAD9EAD0E945F1918160CF044C0BC
:101E300020E030E040E251E46B817C818D819E8125
:101E40000E946419DC01CB01BC01CD010E94BB18CA
:101E5000DC01CB019E01215C3F4FF901918380831E
:101E600023C0CE018F5B9F4F28EC30E0FC01318313
:101E70002083CE018F5B9F4FFC0180819181019770
:101E8000F1F79E012F5B3F4FF90191838083CE01D3
:101E9000CF96FC01808191819C0121503109CE01B6
:101EA000CF96FC0131832083CE01CF96FC01808147
:101EB0009181892BB1F628C06BAD7CAD8DAD9EAD07
:101EC0000E94BB18DC01CB019E01215C3F4FF90150
:101ED00091838083CE018D5B9F4F9E01215C3F4F9C
:101EE000F90120813181FC0131832083CE018D5B9A
:101EF0009F4FFC01808191810197F1F79E012D5B3D
:101F00003F4FF901918380830E94410080E090E07F
:101F10000E947E0081E00E94AD0920E040E869EF68
:101F200070E081E00E948D0920E040EC6AE071E001
:101F300081E00E948D090E946501813079F481E081
:101F40000E94AD0981E00E94CF0A8A818F5F8A8357
:101F50008A81882F90E00E947E000AC00E9465015D
:101F6000823049F781E00E94AD0981E00E944D0C6A
:101F700080E090E8ABE3B5E48B879C87AD87BE87B4
:101F80008E01015B1F4F20E030E04AEF54E46B8587
:101F90007C858D859E850E946419DC01CB01F8014A
:101FA00080839183A283B383CE01815B9F4F20E026
:101FB00030E040E85FE3FC016081718182819381C0
:101FC0000E94441888234CF4CE018D5A9F4F21E083
:101FD00030E0FC013183208369C0CE01815B9F4FDB
:101FE00020E03FEF4FE757E4FC016081718182817F
:101FF00093810E945F1918160CF046C020E030E073
:1020000040E251E46B857C858D859E850E94641934
:10201000DC01CB018E010D5A1F4FBC01CD010E9486
:10202000BB18DC01CB01F8019183808324C0CE0171
:102030008B5A9F4F28EC30E0FC0131832083CE0186
:102040008B5A9F4FFC01808191810197F1F79E018E
:102050002B5A3F4FF90191838083CE018D5A9F4FB8
:102060009E012D5A3F4FF9012081318121503109C4
:10207000FC0131832083CE018D5A9F4FFC0180816A
:102080009181892BA1F62CC08E010D5A1F4FCE01D4
:10209000815B9F4FFC0160817181828193810E94ED
:1020A000BB18DC01CB01F80191838083CE01895AF2
:1020B0009F4F9E012D5A3F4FF90120813181FC0134
:1020C00031832083CE01895A9F4FFC018081918109
:1020D0000197F1F79E01295A3F4FF90191838083BF
:1020E00081E00E94AD0920E040E86BE171E081E011
:1020F0000E948D0920E040EC6AE271E081E00E94DC
:102100008D090E946501823079F481E00E94AD0959
:1021100081E00E94CF0A8A818F5F8A838A81882F1B
:1021200090E00E947E000AC00E946501813049F75C
:1021300081E00E94AD0981E00E944D0C80E090E8B2
:10214000ABE3B5E48B8B9C8BAD8BBE8B8E01075ABA
:102150001F4F20E030E04AEF54E46B897C898D8981
:102160009E890E946419DC01CB01F8018083918370
:10217000A283B383CE01875A9F4F20E030E040E82E
:102180005FE3FC0160817181828193810E94441828
:1021900088234CF4CE01835A9F4F21E030E0FC01AC
:1021A0003183208369C0CE01875A9F4F20E03FEFE3
:1021B0004FE757E4FC0160817181828193810E9425
:1021C0005F1918160CF046C020E030E040E251E400
:1021D0006B897C898D899E890E946419DC01CB0101
:1021E0008E01035A1F4FBC01CD010E94BB18DC01B8
:1021F000CB01F8019183808324C0CE01815A9F4F87
:1022000028EC30E0FC0131832083CE01815A9F4FBE
:10221000FC01808191810197F1F79E01215A3F4F86
:10222000F90191838083CE01835A9F4F9E01235AE7
:102230003F4FF9012081318121503109FC01318367
:102240002083CE01835A9F4FFC0180819181892B8D
:10225000A1F62CC08E01035A1F4FCE01875A9F4F03
:10226000FC0160817181828193810E94BB18DC0135
:10227000CB01F80191838083CE018F599F4F9E013E
:10228000235A3F4FF90120813181FC0131832083A2
:10229000CE018F599F4FFC01808191810197F1F709
:1022A0009E012F593F4FF9019183808381E00E9465
:1022B000AD0920E040E86BE371E081E00E948D0908
:1022C00020E040EC6CE471E081E00E948D090E9406
:1022D0006501823079F481E00E94AD0981E00E94BD
:1022E000CF0A8A818F5F8A838A81882F90E00E943B
:1022F0007E000AC00E946501813049F781E00E949A
:10230000AD0981E00E944D0C80E090E8ABE3B5E4BC
:102310008F8B988FA98FBA8F8E010D591F4F20E098
:1023200030E04AEF54E46F89788D898D9A8D0E9450
:102330006419DC01CB01F80180839183A283B3830C
:10234000CE018D599F4F20E030E040E85FE3FC0173
:1023500060817181828193810E94441888234CF4AA
:10236000CE0189599F4F21E030E0FC013183208369
:1023700069C0CE018D599F4F20E03FEF4FE757E4F2
:10238000FC0160817181828193810E945F1918161E
:102390000CF046C020E030E040E251E46F89788DD7
:1023A000898D9A8D0E946419DC01CB018E01095937
:1023B0001F4FBC01CD010E94BB18DC01CB01F8010D
:1023C0009183808324C0CE0187599F4F28EC30E051
:1023D000FC0131832083CE0187599F4FFC0180810E
:1023E00091810197F1F79E0127593F4FF9019183A0
:1023F0008083CE0189599F4F9E0129593F4FF90192
:102400002081318121503109FC0131832083CE01AB
:1024100089599F4FFC0180819181892BA1F62CC0A5
:102420008E0109591F4FCE018D599F4FFC016081CC
:102430007181828193810E94BB18DC01CB01F8017C
:1024400091838083CE0185599F4F9E0129593F4F2B
:10245000F90120813181FC0131832083CE0185592E
:102460009F4FFC01808191810197F1F79E012559D1
:102470003F4FF9019183808381E00E94AD0920E004
:1024800040E86DE571E081E00E948D0920E040ECBC
:102490006EE671E081E00E948D090E946501813045
:1024A00079F481E00E94AD0981E00E94CF0A8A811F
:1024B0008F5F8A838A81882F90E00E947E000AC005
:1024C0000E946501823049F781E00E94AD0981E0F8
:1024D0000E944D0C80E090E8ABE3B5E48B8F9C8FBD
:1024E000AD8FBE8F8E0103591F4F20E030E04AEFC1
:1024F00054E46B8D7C8D8D8D9E8D0E946419DC0162
:10250000CB01F80180839183A283B383CE018359E9
:102510009F4F20E030E040E85FE3FC016081718183
:10252000828193810E94441888234CF4CE018F58F5
:102530009F4F21E030E0FC013183208369C0CE0150
:1025400083599F4F20E03FEF4FE757E4FC01608144
:102550007181828193810E945F1918160CF046C028
:1025600020E030E040E251E46B8D7C8D8D8D9E8DBE
:102570000E946419DC01CB018E010F581F4FBC0172
:10258000CD010E94BB18DC01CB01F801918380834F
:1025900024C0CE018D589F4F28EC30E0FC013183E0
:1025A0002083CE018D589F4FFC018081918101973E
:1025B000F1F79E012D583F4FF90191838083CE01A1
:1025C0008F589F4F9E012F583F4FF9012081318135
:1025D00021503109FC0131832083CE018F589F4F58
:1025E000FC0180819181892BA1F62CC08E010F58AE
:1025F0001F4FCE0183599F4FFC0160817181828101
:1026000093810E94BB18DC01CB01F8019183808388
:10261000CE018B589F4F9E012F583F4FF9012081CB
:102620003181FC0131832083CE018B589F4FFC0107
:10263000808191810197F1F79E012B583F4FF9015D
:102640009183808381E00E94AD0920E040E86EE73D
:1026500071E081E00E948D0920E040EC60E971E0CA
:1026600081E00E948D090E946501823079F481E049
:102670000E94AD0981E00E94CF0A8A818F5F8A8320
:102680008A81882F90E00E947E000AC00E94650126
:10269000813049F781E00E94AD0981E00E944D0C34
:1026A00080E090E8ABE3B5E48F8F98A3A9A3BAA329
:1026B0008E0109581F4F20E030E04AEF54E46F8D3F
:1026C00078A189A19AA10E946419DC01CB01F801CB
:1026D00080839183A283B383CE0189589F4F20E0EA
:1026E00030E040E85FE3FC01608171818281938189
:1026F0000E94441888234CF4CE0185589F4F21E056
:1027000030E0FC013183208369C0CE0189589F4F9E
:1027100020E03FEF4FE757E4FC0160817181828147
:1027200093810E945F1918160CF046C020E030E03B
:1027300040E251E46F8D78A189A19AA10E946419A9
:10274000DC01CB018E0105581F4FBC01CD010E9459
:10275000BB18DC01CB01F8019183808324C0CE013A
:1027600083589F4F28EC30E0FC0131832083CE0159
:1027700083589F4FFC01808191810197F1F79E0161
:1027800023583F4FF90191838083CE0185589F4F95
:102790009E0125583F4FF901208131812150310997
:1027A000FC0131832083CE0185589F4FFC0180813D
:1027B0009181892BA1F62CC08E0105581F4FCE01A7
:1027C00089589F4FFC0160817181828193810E94B1
:1027D000BB18DC01CB01F80191838083CE018158C5
:1027E0009F4F9E0125583F4FF90120813181FC0107
:1027F00031832083CE0181589F4FFC0180819181DC
:102800000197F1F79E0121583F4FF9019183808391
:1028100081E00E94AD098A81853079F426E040E8A4
:102820006FE971E081E00E948D0920E040EC64EAEC
:1028300071E081E00E948D0915C08A81833040F0EB
:1028400022E040E863EB71E081E00E948D090AC05C
:102850008A81833038F422E040E86EEB71E081E059
:102860000E948D09FFCFCF93DF9300D0CDB7DEB7A5
:1028700089836A8389818830A0F58A81882F90E0D6
:102880000097C1F0019709F0EDC08BE390E02BE3D6
:1028900030E0F9012081622F2981422F50E021E0B0
:1028A00030E002C0220F331F4A95E2F7262BFC01CD
:1028B0002083D8C08BE390E02BE330E0F901208146
:1028C000622F2981422F50E021E030E002C0220F28
:1028D000331F4A95E2F720952623FC012083000050
:1028E000C1C08981883008F43DC089818031D0F52C
:1028F0008A81882F90E00097D9F0019709F0B2C043
:1029000088E390E028E330E0F9012081622F2981FB
:10291000222F30E0A9014770552721E030E002C0A6
:10292000220F331F4A95E2F7262BFC01208319C0A2
:1029300088E390E028E330E0F9012081622F2981CB
:10294000222F30E0A9014770552721E030E002C076
:10295000220F331F4A95E2F720952623FC0120839E
:10296000000080C08981803108F43DC089818831B0
:10297000D0F58A81882F90E00097D9F0019709F06F
:1029800071C085E390E025E330E0F9012081622FFA
:102990002981222F30E0A9014770552721E030E03E
:1029A00002C0220F331F4A95E2F7262BFC01208339
:1029B00019C085E390E025E330E0F9012081622F22
:1029C0002981222F30E0A9014770552721E030E00E
:1029D00002C0220F331F4A95E2F720952623FC01FF
:1029E000208300003FC089818731E0F189818032F6
:1029F000C8F58A81882F90E00097D9F0019709F0F7
:102A000031C082E390E022E330E0F9012081622FBF
:102A10002981222F30E0A9014770552721E030E0BD
:102A200002C0220F331F4A95E2F7262BFC012083B8
:102A300019C082E390E022E330E0F9012081622FA7
:102A40002981222F30E0A9014770552721E030E08D
:102A500002C0220F331F4A95E2F720952623FC017E
:102A60002083000000000F900F90DF91CF91089518
:102A7000CF93DF9300D0CDB7DEB78A8319828A81E6
:102A80008830E0F489E390E0FC018081482F8A815E
:102A9000282F30E081E090E002C0880F991F2A952E
:102AA000E2F78423882F90E02A81222F30E002C0B1
:102AB000959587952A95E2F7898374C08A81883035
:102AC00020F18A81803108F586E390E0FC01808165
:102AD000482F8A81882F90E09C012770332781E05E
:102AE00090E002C0880F991F2A95E2F78423882F6F
:102AF00090E02A81222F30E02770332702C095957D
:102B000087952A95E2F789834DC08A81803120F12B
:102B10008A81883108F583E390E0FC018081482FA9
:102B20008A81882F90E09C012770332781E090E014
:102B300002C0880F991F2A95E2F78423882F90E01E
:102B40002A81222F30E02770332702C09595879580
:102B50002A95E2F7898326C08A81873118F18A8114
:102B6000803200F580E390E0FC018081482F8A816B
:102B7000882F90E09C012770332781E090E002C00D
:102B8000880F991F2A95E2F78423882F90E02A81E5
:102B9000222F30E02770332702C0959587952A951C
:102BA000E2F7898389810F900F90DF91CF9108958B
:102BB000CF93DF9300D0CDB7DEB789836A83898155
:102BC0008830A0F58A81882F90E00097C1F00197A6
:102BD00009F0EDC08AE390E02AE330E0F9012081BA
:102BE000622F2981422F50E021E030E002C0220F05
:102BF000331F4A95E2F7262BFC012083D8C08AE3D5
:102C000090E02AE330E0F9012081622F2981422FF0
:102C100050E021E030E002C0220F331F4A95E2F776
:102C200020952623FC0120830000C1C089818830C3
:102C300008F43DC089818031D0F58A81882F90E0E9
:102C40000097D9F0019709F0B2C087E390E027E33D
:102C500030E0F9012081622F2981222F30E0A90183
:102C60004770552721E030E002C0220F331F4A95FC
:102C7000E2F7262BFC01208319C087E390E027E3CD
:102C800030E0F9012081622F2981222F30E0A90153
:102C90004770552721E030E002C0220F331F4A95CC
:102CA000E2F720952623FC012083000080C0898163
:102CB000803108F43DC089818831D0F58A81882F20
:102CC00090E00097D9F0019709F071C084E390E09B
:102CD00024E330E0F9012081622F2981222F30E0A6
:102CE000A9014770552721E030E002C0220F331FB1
:102CF0004A95E2F7262BFC01208319C084E390E07B
:102D000024E330E0F9012081622F2981222F30E075
:102D1000A9014770552721E030E002C0220F331F80
:102D20004A95E2F720952623FC01208300003FC04E
:102D300089818731E0F189818032C8F58A81882FC5
:102D400090E00097D9F0019709F031C081E390E05D
:102D500021E330E0F9012081622F2981222F30E028
:102D6000A9014770552721E030E002C0220F331F30
:102D70004A95E2F7262BFC01208319C081E390E0FD
:102D800021E330E0F9012081622F2981222F30E0F8
:102D9000A9014770552721E030E002C0220F331F00
:102DA0004A95E2F720952623FC01208300000000CD
:102DB0000F900F90DF91CF910895CF93DF9300D0C4
:102DC0001F92CDB7DEB789836A834B838B818130B5
:102DD000C1F48981882F90E09C018981882F90E03F
:102DE000FC018081682F8A81482F50E081E090E0CB
:102DF00002C0880F991F4A95E2F7862BF90180835C
:102E00001BC08B818823C1F48981882F90E09C01AD
:102E10008981882F90E0FC018081682F8A81482F6A
:102E200050E081E090E002C0880F991F4A95E2F7D8
:102E300080958623F901808300000F900F900F90FA
:102E4000DF91CF910895CF93DF9300D0CDB7DEB758
:102E500089836A838A81813039F48981882F90E05F
:102E60002FEFFC0120830FC08A81882331F48981F0
:102E7000882F90E0FC01108206C08981882F90E0A5
:102E80002A81FC01208300000F900F90DF91CF91E9
:102E90000895CF93DF9300D01F92CDB7DEB78A831A
:102EA0006B838A81882F90E0FC018081482F8B8181
:102EB000282F30E081E090E002C0880F991F2A950A
:102EC000E2F78423898389810F900F900F90DF911F
:102ED000CF910895CF93DF93CDB7DEB741E061E0A6
:102EE00088E50E94DD1660E082E50E94231769EF05
:102EF0008CE50E94231741E063E083E50E94DD1624
:102F000041E061E083E50E94DD1641E060E083E599
:102F10000E94DD160000DF91CF910895CF93DF93DB
:102F2000CDB7DEB728970FB6F894DEBF0FBECDBF82
:102F30006D837E838F83988719821A821B821C82FD
:102F400060E082E50E94231719821A821B821C828C
:102F500017C0000061E088E50E9449178823D1F37B
:102F600041E061E088E50E94DD1689819A81AB81AC
:102F7000BC810196A11DB11D89839A83AB83BC835B
:102F800029813A814B815C818D819E81AF81B88599
:102F9000281739074A075B07E0F2000028960FB6AA
:102FA000F894DEBF0FBECDBFDF91CF91089550588A
:102FB000BB27AA270E94EF170C9425190E94171906
:102FC00038F00E941E1920F039F49F3F19F426F4BE
:102FD0000C9414190EF4E095E7FB0C940E19E92FEC
:102FE0000E94361958F3BA176207730784079507CA
:102FF00020F079F4A6F50C9458190EF4E0950B2EF8
:10300000BA2FA02D0B01B90190010C01CA01A0013A
:103010001124FF27591B99F0593F50F4503E68F195
:103020001A16F040A22F232F342F4427585FF3CFD6
:10303000469537952795A795F0405395C9F77EF4A7
:103040001F16BA0B620B730B840BBAF09150A1F0F0
:10305000FF0FBB1F661F771F881FC2F70EC0BA0F76
:10306000621F731F841F48F4879577956795B795FE
:10307000F7959E3F08F0B0CF9395880F08F09927F9
:10308000EE0F9795879508950E94EA1808F481E05D
:1030900008950E945D180C9425190E941E1958F07D
:1030A0000E94171940F029F45F3F29F00C940E1983
:1030B00051110C9459190C9414190E94361968F383
:1030C0009923B1F3552391F3951B550BBB27AA27E1
:1030D00062177307840738F09F5F5F4F220F331F1B
:1030E000441FAA1FA9F335D00E2E3AF0E0E832D0E3
:1030F00091505040E695001CCAF72BD0FE2F29D0E6
:10310000660F771F881FBB1F261737074807AB07B7
:10311000B0E809F0BB0B802DBF01FF2793585F4F2C
:103120003AF09E3F510578F00C940E190C94591901
:103130005F3FE4F3983ED4F3869577956795B7950E
:10314000F7959F5FC9F7880F911D9695879597F919
:103150000895E1E0660F771F881FBB1F6217730792
:103160008407BA0720F0621B730B840BBA0BEE1FA7
:1031700088F7E09508950E943E1988F09F5798F0CF
:10318000B92F9927B751B0F0E1F0660F771F881F6C
:10319000991F1AF0BA95C9F714C0B13091F00E9486
:1031A0005819B1E008950C945819672F782F882783
:1031B000B85F39F0B93FCCF3869577956795B395AD
:1031C000D9F73EF490958095709561957F4F8F4F1C
:1031D0009F4F0895990F0008550FAA0BE0E8FEEFE6
:1031E00016161706E807F907C0F012161306E407CB
:1031F000F50798F0621B730B840B950B39F40A26C4
:1032000061F0232B242B252B21F408950A2609F4A1
:10321000A140A6958FEF811D811D089597F99F67A5
:1032200080E870E060E008959FEF80EC089500244E
:103230000A941616170618060906089500240A941B
:1032400012161306140605060895092E0394000CA1
:1032500011F4882352F0BB0F40F4BF2B11F460FF30
:1032600004C06F5F7F4F8F4F9F4F089557FD905859
:10327000440F551F59F05F3F71F04795880F97FB3A
:10328000991F61F09F3F79F08795089512161306F4
:103290001406551FF2CF4695F1DF08C01616170623
:1032A0001806991FF1CF8695710561050894089558
:1032B000E894BB2766277727CB0197F908950E94EA
:1032C000EA1808F48FEF08950E9477190C942519D5
:1032D0000E94171938F00E941E1920F0952311F052
:1032E0000C940E190C94141911240C9459190E9461
:1032F000361970F3959FC1F3950F50E0551F629FEB
:10330000F001729FBB27F00DB11D639FAA27F00D3E
:10331000B11DAA1F649F6627B00DA11D661F829F65
:103320002227B00DA11D621F739FB00DA11D621F4A
:10333000839FA00D611D221F749F3327A00D611D67
:10334000231F849F600D211D822F762F6A2F112449
:103350009F5750409AF0F1F088234AF0EE0FFF1F7C
:10336000BB1F661F771F881F91505040A9F79E3FD3
:10337000510580F00C940E190C9459195F3FE4F339
:10338000983ED4F3869577956795B795F795E79529
:103390009F5FC1F7FE2B880F911D9695879597F932
:1033A0000895A29FB001B39FC001A39F700D811D1E
:1033B0001124911DB29F700D811D1124911D08953E
:0433C000F894FFCFAF
:1033C40003040810111210101F0000000010000068
:1033D4001F0000000001000018040201110901018E
:1033E4001010101010080403000008040300001F4C
:1033F400000000020418001F010101010102041869
:10340400000001020400001F000010080400001F57
:103414006D6F68616D6564206F72616269002A2A4C
:103424002A57454C434F4D452A2A2A006C6574732C
:10343400207374617274202100596F757220736354
:103444006F72652077696C6C0061707065617220C1
:103454006F6E203720736567006E756D206F662070
:10346400636F756E747279202000696E20457572E1
:103474006F70652069732034343F005468652043BD
:1034840061706974616C206F66004573746F6E6956
:10349400612069732053414B553F0041726561209F
:1034A4006F6620456779707420697300312E30325D
:1034B4006D696C6C696F6E204B4D323F00546865CA
:1034C400205375657A206368616E6E656C006F7059
:1034D400656E656420696E20313836393F00546862
:1034E40065204E756D206F66204765726D616E00B4
:1034F4006C6574746572732069732032393F0057A8
:103504004F572000796F75206172652067656E6979
:10351400757300594F552050415353454400594F3A
:0A35240055204641494C4544000083
:00000001FF
